:020000040800F2
:1000000000C00020E128000899220008A52200086D
:10001000AB220008B1220008B7220008000000004F
:10002000000000000000000000000000E184000863
:10003000BD22000800000000C1860008C922000897
:100040002929000829290008292900082929000848
:100050002929000829290008292900082929000838
:100060002929000829290008292900082929000828
:100070002929000829290008292900082929000818
:100080002929000829290008292900082929000808
:1000900029290008292900082929000829290008F8
:1000A00029290008292900082929000829290008E8
:1000B00029290008292900082929000829290008D8
:1000C00029290008292900082929000829290008C8
:1000D00029290008F52200082929000829290008F3
:1000E00029290008292900082929000829290008A8
:1000F0002929000829290008292900082929000898
:100100002929000829290008292900082929000887
:100110002929000829290008292900082929000877
:100120002929000829290008292900082929000867
:1001300000000000000000000000000000000000BF
:1001400000000000000000000000000000000000AF
:10015000000000000000000000000000000000009F
:10016000000000000000000000000000000000008F
:10017000000000000000000000000000000000007F
:10018000000000000000000000000000000000006F
:10019000000000000000000000000000000000005F
:1001A000000000000000000000000000000000004F
:1001B000000000000000000000000000000000003F
:1001C000000000000000000000000000000000002F
:1001D000000000000000000000000000000000001F
:0401E0005FF8E0F1F3
:1001F00010B5054C237833B9044B13B10448AFF361
:1002000000800123237010BD30000020000000009A
:10021000308C000808B5034B1BB103490348AFF30A
:10022000008008BD0000000034000020308C000871
:1002300080B400AF00BFBD4680BC704780B500AF42
:10024000664B1B78013B052B00F2B78001A252F8E8
:1002500023F000BF6D02000891020008D9020008D7
:1002600013030008490300087F0300085C4B1B8848
:10027000C82B03D9594BFF221A70ADE0574B1B789E
:100280000133DAB2554B1A70554B00221A80A3E0A5
:10029000534B1B88C82B03D9504BFF221A709BE08D
:1002A000504B9B6803F40053002B09D04B4B1B7839
:1002B0000133DAB2494B1A70494B00221A808BE0A5
:1002C00000220121484803F091FA444B00221A70A1
:1002D000434B00221A807FE0414B1B88B3F5FA7F25
:1002E00003D93E4BFF221A7076E0012201213E48DD
:1002F00003F07CFA3A4B1B88B3F5FA7F65D3374B92
:100300001B780133DAB2354B1A70354B00221A8054
:1003100062E0334B1B88C82B03D9304BFF221A7085
:100320005AE001222021314803F060FA2C4B1B884F
:10033000C72B4CD9294B1B780133DAB2274B1A70E3
:10034000274B00221A8047E0254B1B88642B03D9DA
:10035000224BFF221A703FE000222021234803F0A5
:1003600045FA1F4B1B88632B33D91C4B1B78013379
:10037000DAB21A4B1A701A4B00221A802CE0184B72
:100380001B88642B03D9154BFF221A7024E0154BF0
:100390009B6803F40053002B03D0104BFF221A700C
:1003A0001AE000220121104803F020FA0B4B002232
:1003B0001A700B4B00221A800EE0084B1B78002BA2
:1003C00009D0064BFF221A7005E000BF04E000BF11
:1003D00002E000BF00E000BF00BF80BDBF1D0020E5
:1003E000661D002000100140000C01400018014073
:1003F00080B500AFA54B1B78013B0E2B00F2478266
:1004000001A252F823F000BF450400086904000867
:10041000A50400081D050008630500089B050008E9
:100420000106000829060008A1060008C906000800
:100430002F07000857070008BD070008E507000858
:100440004B080008924B1B88642B03D98F4BFF226B
:100450001A7041E28D4B1B780133DAB28B4B1A7064
:100460008B4B00221A8037E2894B1B88B3F5967FAD
:1004700003D9864BFF221A702EE201220221854801
:1004800003F0B4F9824B1B88B3F5967FC0F0078266
:100490007E4B1B780133DAB27C4B1A707C4B002206
:1004A0001A8019E27A4B1B88642B03D9774BFF2201
:1004B0001A7011E201224FF48071774803F096F927
:1004C00001224FF40041744803F090F9704B1B88EF
:1004D000312B40F2E68102F0D9F903461A466F4B00
:1004E0001A806E4B1B8823F4F0739AB26B4B1A8000
:1004F0006A4B1B881A464FF61F631340002B09D026
:10050000624B1B780133DAB2604B1A70604B0022E9
:100510001A80E1E15D4BFF221A70DDE15C4B1B8824
:10052000642B03D9594BFF221A70D5E100224FF4F6
:100530008071594803F05AF900224FF4004156489F
:1005400003F054F9524B1B88312B40F2AC814F4BD6
:100550001B780133DAB24D4B1A704D4B00221A80D2
:10056000BAE14B4B1B88642B03D9484BFF221A700E
:10057000B2E101220121484803F038F9444B1B88BD
:10058000312B40F29281414B1B780133DAB23F4B61
:100590001A703F4B00221A809EE13D4B1B88642B52
:1005A00003D93A4BFF221A7096E1002201213A4802
:1005B00003F01CF9364B1B88312B40F2788102F096
:1005C00065F903461A46354B1A80344B1B8823F4D1
:1005D000F0739AB2314B1A80304B1B8803F40073CE
:1005E000002B09D0294B1B780133DAB2274B1A7044
:1005F000274B00221A806FE1244BFF221A706BE117
:1006000001220221244803F0F1F8214B1B88312BF1
:1006100040F24F811D4B1B780133DAB21B4B1A702D
:100620001B4B00221A8057E1194B1B88642B03D9FE
:10063000164BFF221A704FE100220221164803F0E8
:10064000D5F8134B1B88312B40F2358102F01EF98F
:1006500003461A46114B1A80104B1B8823F4F07383
:100660009AB20E4B1A800D4B1B881BB2002B09DA75
:10067000064B1B780133DAB2044B1A70044B00228C
:100680001A8029E1014BFF221A7025E1BF1D0020CD
:10069000661D0020000C0140001801406019002078
:1006A000012204218D4803F0A1F88D4B1B88312BCA
:1006B00040F203818B4B1B780133DAB2894B1A70FD
:1006C000874B00221A8007E1854B1B88642B03D9D6
:1006D000844BFF221A70FFE0002204217F4803F0C0
:1006E00085F87F4B1B88312B40F2E98002F0CEF871
:1006F00003461A467C4B1A807B4B1B8823F4F0730D
:100700009AB2794B1A80784B1B8803F40063002B54
:1007100009D0744B1B780133DAB2724B1A70704BEC
:1007200000221A80D8E06F4BFF221A70D4E0012219
:1007300008216A4803F05AF8694B1B88312B40F2B4
:10074000C080684B1B780133DAB2664B1A70644B79
:1007500000221A80C0E0624B1B88642B03D9614BD6
:10076000FF221A70B8E0002208215C4803F03EF82E
:100770005B4B1B88312B40F2A68002F087F80346C2
:100780001A46594B1A80584B1B8823F4F0739AB2BF
:10079000554B1A80544B1B8803F48053002B09D00F
:1007A000504B1B780133DAB24E4B1A704C4B00227F
:1007B0001A8091E04B4BFF221A708DE001224FF41A
:1007C00080614A4803F012F8454B1B88312B7CD9D5
:1007D000444B1B780133DAB2424B1A70404B002273
:1007E0001A8079E03E4B1B88642B03D93D4BFF22D6
:1007F0001A7071E000224FF480613C4802F0F6FF6D
:10080000374B1B88312B62D902F040F803461A4659
:10081000354B1A80344B1B8823F4F0739AB2324B59
:100820001A80314B1B8803F48043002B09D12D4BD8
:100830001B780133DAB22B4B1A70294B00221A8035
:100840004AE0284BFF221A7046E0254B1B88C82B34
:1008500003D9244BFF221A703EE0214B1B88C82B82
:1008600037D8234B9B6803F40053002B03D11D4B57
:10087000FF221A7030E0002202211C4802F0B6FF6D
:10088000184B00221A70164B00221A8024E0154BD8
:100890001B78002B1FD0134BFF221A701BE000BFE8
:1008A0001AE000BF18E000BF16E000BF14E000BF70
:1008B00012E000BF10E000BF0EE000BF0CE000BF80
:1008C0000AE000BF08E000BF06E000BF04E000BF90
:1008D00002E000BF00E000BF00BF80BD0018014083
:1008E000661D0020BF1D002060190020000C014083
:1008F0000010014080B586B002AF7860B14B002295
:100900001A70B04B1B780E2B00F2968301A252F89E
:1009100023F000BF5109000885090008AD0900084F
:100920002D0A00087F0A0008DB0A0008190B0008DE
:10093000870B0008FB0C0008350E0008E10E0008CC
:100940009D0F0008C90F0008EF0F000807100008EE
:1009500001F0ECF99C4801F0FBFB9C4B01221A7062
:100960009B4A0121012004F063FD0346994A13606C
:10097000994B00221A80934B1B780133DAB2914BCA
:100980001A7096E3914B1B78002B40F05983934AE1
:1009900013786FF3C30313708F4B00221A80894BB7
:1009A0001B780133DAB2874B1A7082E38C4B1B78C9
:1009B00003F00303DBB2002B13D1874B1B88462BBC
:1009C00040F24083854A13786FF3C30313707D4B65
:1009D0001B780133DAB27B4B1A707F4B00221A80EE
:1009E00030E37F4B1B7803F00203DBB2002B19D1FD
:1009F000794B1B88B3F57A7F40F22483774B1B78C1
:100A0000C3F30013DBB283F00103D9B2734A137846
:100A100061F3041313706B4B00221A706E4B0022AB
:100A20001A800FE36C4B00221A800BE3674B1B7894
:100A3000002B40F00983674B1B684FF0FF311846CD
:100A400004F092FDF860FB68002B40F0FF824FF449
:100A500080620021634808F0E3F85C4B02221A70C0
:100A60005E4A13786FF3C3031370564B1B78013340
:100A7000DAB2544B1A70584B00221A8019E3584BC3
:100A80001B7803F00303DBB2002B14D101224FF4D7
:100A90000071554802F0AAFE4F4B1B88642B40F2B0
:100AA000D782484B1B780133DAB2464B1A704A4B57
:100AB00000221A80CCE200224FF400714A4802F072
:100AC00095FE444B1B68184604F00CFE3D4B0D226E
:100AD0001A70414B00221A80BAE2444B0093302333
:100AE00005220221062000F08FFB0346002B00F0B8
:100AF000B1823F4B0093772308220121012000F0AF
:100B000083FB0346002B00F0A7822E4B06221A70AF
:100B1000314B00221A80CCE2314B1B7803F00103E9
:100B2000DBB2002B00F09A822D4B1B7803F00203FE
:100B3000DBB2002B00F094822C4B00933023052273
:100B40000221062000F060FB0346002B00F08A82A1
:100B5000274B0093772308220121012000F054FB4A
:100B60000346002B00F080821C4A13786FF3C30306
:100B70001370204B00221A70124B07221A70164B6A
:100B800000221A8095E2154B1B7803F01003DBB2AC
:100B9000002B31D0114B1B7803F00803DBB2002B84
:100BA0002DD00E4A13786FF3C30313700C4B1B78D0
:100BB00003F00203DBB2002B21D1024B08221A7092
:100BC0001DE000BFC01D0020C81E002058190020D5
:100BD000A09B0008B81D0020661D002054200020A6
:100BE000E42000206419002000180140C89000088B
:100BF00050920008BC1D0020AD4B08221A70AD4B6E
:100C00001B780E2B02D1AA4B08221A70A84B1B7816
:100C1000082B40F02B82A74B1B78002B17D1A64B3B
:100C20000093772308220121022000F0EDFA034609
:100C3000002B00F01D82A14B009377230822012195
:100C4000002000F0E1FA0346002B4FD131E2994B2E
:100C50001B78102B0BD99A4B1B68184604F042FDE9
:100C6000934B0D221A70974B00221A8021E2914B70
:100C70001B785A1E1346DB009B1A1A0113448E4A36
:100C800013440093772308220121042000F0BCFACA
:100C90000346002B00F0EE81864B1B781A46134664
:100CA000DB009B1A1A011344834A134400937723F1
:100CB00008220121022000F0A7FA0346002B00F0D1
:100CC000DB817C4B1B785A1C1346DB009B1A1A01F4
:100CD0001344794A1344009377230822012100200A
:100CE00000F092FA0346002B00F0C881764B0122F7
:100CF0001A70744B00221A80B8E16E4B1B78082BD7
:100D000052D801A252F823F02D0D0008330D00082F
:100D1000430D0008530D0008590D0008690D000827
:100D2000790D0008890D0008990D0008FFF786FA73
:100D30004BE0654B1B78002B3AD0634B00221A70B6
:100D400036E0614B1B78002B34D05F4B00221A70C9
:100D500030E0FFF74DFB38E05B4B1B78002B2BD0CE
:100D6000594B00221A7027E0574B1B78002B25D0D7
:100D7000554B00221A7021E0534B1B78002B1FD0DB
:100D8000514B00221A701BE04F4B1B78002B19D0DF
:100D90004D4B00221A7015E04B4B1B78002B13D0E3
:100DA000494B00221A700FE0474B00221A700CE0EA
:100DB00000BF0AE000BF08E000BF06E000BF04E09B
:100DC00000BF02E000BF00E000BF3F4B1B78FF2BDD
:100DD0000CD1384B1B789BB201339AB23B4B1A8033
:100DE000334B0A221A70374B00221A80364B1B787D
:100DF000FE2B05D12E4B0A221A70324B00221A808C
:100E0000314B1B78002B40F03B812A4B1B78013380
:100E1000DAB2284B1A70274B1B78102B03D9244BBE
:100E200009221A7002E0224B07221A70254B002279
:100E30001A803EE101F0C8FB254A13786FF3C30323
:100E40001370244B0093302305220221062000F06A
:100E5000DBF90346002B00F015811F4B009377232D
:100E600008220121042000F0CFF90346002B00F0F6
:100E70000B811A4B0093772308220121022000F0F6
:100E8000C3F90346002B00F00181134B0093772335
:100E900008220121002000F0B7F90346002B00F0E2
:100EA000F780034B0B221A70064B00221A8000E1D8
:100EB000C01D0020BC1D0020C89200083F93000800
:100EC000B81D0020661D0020BF1D00205E190020F7
:100ED0005420002028910008289B0008AF9A0008A1
:100EE00001F072FB00224FF48051724802F07EFC48
:100EF000714A13786FF3C3031370704B0093302360
:100F000005220221062000F07FF90346002B00F0A5
:100F1000C1806B4B1B886B4AA2FB0323DB089AB290
:100F2000694B1A80684B1B88092B02D9664B092232
:100F30001A80654B1B88DB00644A13440093082326
:100F400028220121062000F05FF90346002B00F063
:100F5000A3805B4B1A885B4BA3FB0213D9080B469B
:100F60009B000B445B00D31A9AB2574B1A80564B26
:100F70001B88DB00554A13440093082330220121CB
:100F8000062000F041F90346002B00F08780504B0B
:100F900002221A704F4B00221A808AE04D4B1B88A8
:100FA000B3F5967F7CD301F00FFB434A13786FF3C0
:100FB000C3031370464B1B780133DAB2444B1A70EB
:100FC000444B00221A8074E03B4B1B7803F008036B
:100FD000DBB2002B66D0384A13786FF3C30313706B
:100FE0003B4B00221A703B4B00221A805AE001F062
:100FF000EBFA374B1B780133DAB2354B1A70354BAD
:1010000000221A8055E0344B1B7803F00103DBB259
:10101000002B49D0304B1B7803F00203DBB2002BCE
:1010200044D02E4B1B78002B42D1294B00221A7042
:10103000284B00221A803CE0254B00221A7038E031
:1010400000BF5EE400BF5CE400BF5AE400BF58E4A8
:1010500000BF56E400BF54E400BF52E400BF50E4B8
:1010600000BF4EE400BF4CE400BF4AE400BF48E4C8
:1010700000BF46E400BF44E400BF42E400BF40E4D8
:1010800000BF3EE400BF3CE400BF3AE400BF38E4E8
:1010900000BF36E400BF34E400BF32E400BF30E4F8
:1010A00000BF2EE400BF2CE400BF2AE400BF28E408
:1010B00000BF26E40014014054200020889100085D
:1010C0005E190020CDCCCCCC60190020E89100083E
:1010D000C01D0020661D0020E420002058190020BB
:1010E00080B485B000AF0346FB710023FB7303E0BF
:1010F00000BFFB7B0133FB73FA7BFB799A42F7D38A
:1011000000BF00BF1437BD4680BC704780B584B0B7
:1011100000AF0346FB71FB79FB81FB890122194675
:10112000084802F063FBFB8983F0FF03FB81FB8926
:1011300000221946034802F059FB00BF1037BD4694
:1011400080BD00BF0014014080B582B000AF0346EF
:101150000A46FB711346BB7100224FF480512848A8
:1011600002F044FB0220FFF7BBFF00224FF4807126
:10117000234802F03BFB00224FF40061214802F0BB
:1011800035FB0220FFF7ACFFFB79002B06D10122D3
:101190004FF480711A4802F029FB05E001224FF458
:1011A0000061184802F022FB00224FF4006114484D
:1011B00002F01CFBBB791846FFF7A8FF01224FF491
:1011C00080510F4802F012FB0420FFF789FF002234
:1011D0004FF480510A4802F009FB0220FFF780FF1C
:1011E00000224FF48071064802F000FB00224FF409
:1011F0000061044802F0FAFA00BF0837BD4680BD1E
:10120000001001400008014090B587B000AF0446CF
:10121000084611461A462346FB710346BB710B462E
:101220007B7113463B71464B1B780C2B01D9002375
:1012300082E0444B1B684FF47A71184604F094F92D
:1012400038613B69002B0BD03F4B00221A8000BF56
:101250003E4B1B78002B03D03B4B1B88312BF7D91F
:10126000374B1B780C2B01D9002365E00023FB755D
:1012700040E00023BB7536E07A79FB7D1344FB73B5
:10128000FB7B3F2B14D8FB7DBA7902FB03F2BB7DBD
:1012900013441A46BB6A9918FA7BF879BB7D03445C
:1012A00008782B49D2000A44134402461A7017E00A
:1012B000FB7DBA7902FB03F2BB7D13441A46BB6A7D
:1012C0009918FB7BA3F14002F879BB7D03440878B1
:1012D0001F49D2000A44134403F5007302461A70F2
:1012E000BB7D0133BB75BA7DBB799A42C4D3FB7D0C
:1012F0000133FB75FA7D3B799A42BAD3154AFB79E3
:101300001370FA79BB791344DBB2013BDAB2124BAA
:101310001A70124A7B791370104B1A78104B1A709E
:101320007A793B791344DBB2013BDAB20D4B1A7088
:10133000064B03221A70012318461C37BD4690BD88
:10134000C01D0020B81D00205A1900205819002087
:1013500064190020BD1D00205C190020BE1D002066
:10136000E01D00205419002080B582B000AF7860E5
:10137000A94B1B78032B00F2958101A252F823F0B0
:10138000AD160008911300084D14000885160008DA
:1013900000224021A14802F029FA01228021A04820
:1013A00002F024FA00224FF480519E4802F01EFA07
:1013B0000A2003F0E3FE01224FF48051994802F025
:1013C00015FA00224FF48051954802F00FFA0022DE
:1013D0004FF48071924802F009FA00224FF4006144
:1013E000904802F003FA00224FF480618C4802F02A
:1013F000FDF9C0210020FFF7A7FEC0210120FFF763
:10140000A3FE40210020FFF79FFE40210120FFF7AF
:101410009BFEB8210020FFF797FEB8210120FFF7BF
:1014200093FE3F210020FFF78FFE3F210120FFF7B1
:101430008BFE7D4A7D4B104619464FF480631A4659
:1014400007F0E0FB744B02221A7030E1784B3F2228
:101450001A7071E0774B00221A7060E000224FF49E
:1014600080616F4802F0C2F9714B1B7843F0400372
:10147000DBB219460020FFF767FE6D4B1B78C3F106
:101480003F03DBB25BB243F040035BB2DBB2194611
:101490000120FFF759FE674B1B7863F04703DBB26F
:1014A00019460020FFF750FE624B1B7863F047039C
:1014B000DBB219460120FFF747FE012003F05EFE74
:1014C00001224FF48061564802F090F9584B1B7886
:1014D0001A46584B1B78C3F107035349D2000A44FC
:1014E00013441B7819460020FFF72EFE504B1B7843
:1014F000C3F13F024F4B1B78C3F107034A49D200A7
:101500000A44134403F500731B7819460120FFF7C2
:101510001BFE484B1B780133DAB2464B1A70454B21
:101520001B78072B9AD9052003F028FE404B1B7827
:10153000013BDAB23E4B1A703D4B1B783F2B89D9E9
:1015400001222021354802F051F9334B00221A7054
:10155000394B1B68184604F06DF8A8E0374B1A7831
:10156000344B1A7081E000224FF480612C4802F065
:101570003DF92F4B1B783F2B1BD92D4B1B78403B44
:10158000DBB25BB243F040035BB2DBB21946012031
:10159000FFF7DAFD274B1B78C3F10703DBB25BB221
:1015A00063F047035BB2DBB219460120FFF7CCFDC5
:1015B00016E01F4B1B7843F04003DBB219460020B6
:1015C000FFF7C2FD1B4B1B78C3F10703DBB25BB215
:1015D00063F047035BB2DBB219460020FFF7B4FDAE
:1015E00001224FF480610E4802F000F9104B1B7885
:1015F0003F2B25D90E4B1B78403B0E4A12781146E3
:10160000094ADB0013440B4403F500731B781946A9
:101610000120FFF799FD22E058190020000C01403D
:10162000001001400008014064190020C88C000827
:10163000E01D0020641D0020B81D0020BD1D0020FD
:101640001B4B1B7818461B4B1B7819461A4AC300C4
:1016500013440B441B7819460020FFF775FD154B0A
:101660001B780133DAB2134B1A70124B1A78134BF2
:101670001B789A427FF677AF0D4B1B780133DAB2B5
:101680000B4B1A700A4B1A780D4B1B789A427FF657
:1016900065AF0C4B00221A700B4B1B68184603F009
:1016A000C9FF04E0074B00221A7000E000BF5FE6AC
:1016B000E01D0020641D0020641900205C1900203A
:1016C0005419002058190020B81D002080B582B0A0
:1016D00000AF786000F0D0FE01F006F81C4B1B78DC
:1016E00003F00803DBB2002B1BD01A4B1B7803F06E
:1016F0000103DBB2002B14D1174B1B78062B10D93A
:10170000154B1B780A2B0CD8114A13786FF3C303BF
:101710001370124B1B68184603F0E4FF0E4B0D22AA
:101720001A700F4B1B88B3F5FA6FD3D9084A137898
:101730006FF3C3031370094B1B68184603F0D2FF05
:10174000054B0D221A70064B00221A80C2E700BF1B
:1017500054200020E4200020C01D0020B81D0020DF
:10176000661D002080B500AF01F0E0F800F06CF8D5
:1017700000F0DCFA00F0BAF800F0F6F800F05CF9DE
:1017800000F0BEF900F00AFA00F03EFA00F072FA3A
:1017900000F0A2FA00F03AFF03F080FB1A4B00229F
:1017A00001211A4803F02EFD0346194A1360184B15
:1017B0001B680A21184603F0A9FD164A00211648A5
:1017C00003F0D2FB0346154A1360154A0021154861
:1017D00003F0CAFB0346144A1360144A002114485C
:1017E00003F0C2FB0346134A1360134803F0CEFD17
:1017F0000346124A1360124803F0C8FD0346114A1B
:10180000136003F07DFBFEE7B09B0008311F00086A
:10181000C41E0020C09B0008F5080008E41D00203D
:10182000E49B000869130008541F0020089C00086E
:10183000CD160008502000203C9C0008081F002006
:101840002C9C0008E81D002080B596B000AF07F181
:10185000300328220021184607F0E2F907F11C03A3
:1018600000221A605A609A60DA601A613B1D0022F9
:101870001A605A609A60DA601A615A6102233B6307
:1018800001233B6410237B640023FB6407F13003D6
:10189000184601F0C3FF0346002B01D000F076FB91
:1018A0000F23FB6100233B6200237B620023BB62AA
:1018B0000023FB6207F11C030021184602F02EFAF8
:1018C0000346002B01D000F061FB02237B60002364
:1018D000FB603B1D184602F0BBFB0346002B01D00A
:1018E00000F054FB00BF5837BD4680BD80B584B0C2
:1018F00000AF3B1D00221A605A609A60184B194ACB
:101900001A60174B00229A60154B00221A73144B71
:1019100000221A75124B4FF46022DA61104B00223C
:101920005A600F4B01221A610D4801F061F803461D
:10193000002B01D000F02AFB00237B600123BB6059
:101940000023FB603B1D1946054801F021FA0346C0
:10195000002B01D000F01AFB00BF1037BD4680BD40
:10196000741E00200024014080B58CB000AF07F148
:10197000200300221A605A609A60DA6007F10C03B3
:1019800000221A605A609A60DA601A613B1D0022D8
:101990001A605A60264B274A1A60254B00225A606B
:1019A000234B00229A60224B4FF6FF72DA60204BE5
:1019B00000221A611E4B00225A611D4B00229A61BF
:1019C0001B4802F0FBFB0346002B01D000F0DEFABF
:1019D0004FF480533B6207F120031946144802F08C
:1019E0003CFC0346002B01D000F0D0FA0023FB6042
:1019F00000233B6107F10C0319460D4802F0F1FC8E
:101A00000346002B01D000F0C1FA00237B600023C5
:101A1000BB603B1D1946064802F0C4FE0346002B7E
:101A200001D000F0B3FA00BF3037BD4680BD00BF23
:101A3000581F0020002C014080B58CB000AF07F18A
:101A4000200300221A605A609A60DA6007F10C03E2
:101A500000221A605A609A60DA601A613B1D002207
:101A60001A605A60254B4FF080421A60234B0022C7
:101A70005A60224B00229A60204B4FF6FF72DA60C8
:101A80001E4B00221A611D4B00229A611B4802F076
:101A900095FB0346002B01D000F078FA4FF48053F9
:101AA0003B6207F120031946144802F0D6FB0346B7
:101AB000002B01D000F06AFA0023FB6010233B6189
:101AC00007F10C0319460D4802F08BFC0346002B6E
:101AD00001D000F05BFA00237B600023BB603B1D5C
:101AE0001946064802F05EFE0346002B01D000F0C6
:101AF0004DFA00BF3037BD4680BD00BFC01F00207B
:101B000080B586B000AF07F1080300221A605A6062
:101B10009A60DA603B4600221A605A601D4B1E4AEA
:101B20001A601C4B00225A601A4B00229A60194B13
:101B30004FF6FF72DA60174B00221A61154B002234
:101B40009A61144802F03AFB0346002B01D000F0E2
:101B50001DFA4FF48053BB6007F1080319460D4886
:101B600002F07BFB0346002B01D000F00FFA0023AC
:101B70003B6000237B603B461946064802F012FE9C
:101B80000346002B01D000F001FA00BF1837BD4614
:101B900080BD00BF2C1E00200004004080B582B034
:101BA00000AF3B4600221A605A60154B154A1A6076
:101BB000134B00225A60124B00229A60104B4FF6D2
:101BC000FF72DA600E4B80229A610D4802F0F6FA3D
:101BD0000346002B01D000F0D9F900233B6000231D
:101BE0007B603B461946064802F0DCFD0346002BAD
:101BF00001D000F0CBF900BF0837BD4680BD00BF63
:101C00000C1F00200010004080B582B000AF3B46A2
:101C100000221A605A60154B154A1A60134B0022B5
:101C20005A60124B00229A60104B4FF6FF72DA6036
:101C30000E4B00229A610D4802F0C0FA0346002BB9
:101C400001D000F0A3F900233B6000237B603B46FA
:101C50001946064802F0A6FD0346002B01D000F00D
:101C600095F900BF0837BD4680BD00BF08200020A1
:101C70000014004080B500AF154B164A1A60144B93
:101C80004FF416525A60124B00229A60104B0022F9
:101C9000DA600F4B00221A610D4B0C225A610C4B7B
:101CA00000229A610A4B0022DA61094802F0E6FD3F
:101CB0000346002B01D000F069F9054B1B68DA6878
:101CC000034B1B6842F02002DA6000BF80BD00BFFA
:101CD000C81E00200038014080B500AF114B124AE9
:101CE0001A60104B4FF4E1325A600E4B00229A609A
:101CF0000C4B0022DA600B4B00221A61094B0C22BC
:101D00005A61084B00229A61064B0022DA610548AD
:101D100002F0B4FD0346002B01D000F037F900BFFC
:101D200080BD00BFEC1D00200048004080B58AB097
:101D300000AF07F1180300221A605A609A60DA6057
:101D4000754B9B69744A43F040039361724B9B69E6
:101D500003F040037B617B696F4B9B696E4A43F0E4
:101D6000100393616C4B9B6903F010033B613B696B
:101D7000694B9B69684A43F004039361664B9B6916
:101D800003F00403FB60FB68634B9B69624A43F00A
:101D900008039361604B9B6903F00803BB60BB6859
:101DA0005D4B9B695C4A43F0200393615A4B9B69EE
:101DB00003F020037B607B6800224FF6FF715748D9
:101DC00001F014FD002249F24F11554801F00EFDBB
:101DD00001224FF44B61524801F008FD00224FF6FA
:101DE000A751504801F002FD012240214D4801F069
:101DF000FDFC00224FF6FF414B4801F0F7FC0022AA
:101E00004FF40061494801F0F1FC01224FF4B05158
:101E1000464801F0EBFC4FF6FF73BB610123FB6109
:101E200000233B6202237B6207F1180319463B48FB
:101E300001F048FB4FF4C443BB610023FB61002366
:101E40003B6207F118031946354801F03BFB49F6A0
:101E5000FF53BB610123FB6100233B6202237B62D2
:101E600007F1180319462E4801F02CFB4FF6E753F3
:101E7000BB610123FB6100233B6202237B6207F10C
:101E800018031946274801F01DFB4FF6FF43BB61BD
:101E90000123FB6100233B6202237B6207F11803ED
:101EA0001946214801F00EFB4FF48073BB610023FB
:101EB000FB6100233B6207F1180319461B4801F040
:101EC00001FB4FF4D053BB610123FB6100233B6254
:101ED00002237B6207F118031946144801F0F2FA55
:101EE0004FF48063BB610023FB6101233B6207F178
:101EF000180319460D4801F0E5FA4FF40073BB6171
:101F00000323FB6107F118031946064801F0DAFACA
:101F100000BF2837BD4680BD0010024000180140B8
:101F200000100140000C0140001401400008014075
:101F300080B485B000AF78600023FB810BE0FB89A3
:101F40000F4A32F81320013291B20D4A22F81310D1
:101F5000FB890133FB81FB89022BF0D9094B1B88DC
:101F600001339AB2074B1A80074B1B8801339AB290
:101F7000054B1A8000BF1437BD4680BC704700BFB8
:101F800098200020661D00205A19002080B400AF60
:101F900000BFBD4680BC704780B584B000AF164B13
:101FA0009B69154A43F001039361134B9B6903F04E
:101FB0000103BB60BB68104BDB690F4A43F08053E1
:101FC000D3610D4BDB6903F080537B607B6800229B
:101FD0000F216FF0010001F036F9084B5B68FB60E0
:101FE000FB6823F0E063FB60044AFB68536000BFBA
:101FF0001037BD4680BD00BF001002400000014008
:1020000080B588B000AF786007F1100300221A6035
:102010005A609A60DA607B681B68144A934221D147
:10202000134B9B69124A43F400739361104B9B69F5
:1020300003F40073FB60FB680D4B9B690C4A43F093
:10204000040393610A4B9B6903F00403BB60BB6804
:10205000FF233B6103237B6107F110031946054809
:1020600001F030FA00BF2037BD4680BD002401409A
:10207000001002400008014080B489B000AF7860D1
:102080007B681B682D4A93420CD12D4B9B692C4ACF
:1020900043F4006393612A4B9B6903F40063FB6183
:1020A000FB6946E07B681B68B3F1804F0CD1244B81
:1020B000DB69234A43F00103D361214BDB6903F061
:1020C0000103BB61BB6934E07B681B681D4A934216
:1020D0000CD11B4BDB691A4A43F00203D361184B46
:1020E000DB6903F002037B617B6922E07B681B688C
:1020F000154A93420CD1124BDB69114A43F010038D
:10210000D3610F4BDB6903F010033B613B6910E0C7
:102110007B681B680D4A93420BD1094BDB69084A67
:1021200043F02003D361064BDB6903F02003FB601F
:10213000FB6800BF2437BD4680BC7047002C0140BF
:102140000010024000040040001000400014004055
:1021500080B58CB000AF786007F11C0300221A60D4
:102160005A609A60DA607B681B68454A93423AD1AC
:10217000444B9B69434A43F480439361414B9B69C1
:1021800003F48043BB61BB693E4B9B693D4A43F00E
:10219000040393613B4B9B6903F004037B617B6900
:1021A0004FF40073FB6102233B620323BB6207F120
:1021B0001C031946344801F085F94FF48063FB6134
:1021C00000233B6200237B6207F11C0319462E4863
:1021D00001F078F900220521252001F034F82520AE
:1021E00001F04DF848E07B681B68284A934243D1D0
:1021F000244BDB69234A43F48023D361214BDB6901
:1022000003F480233B613B691E4B9B691D4A43F0ED
:10221000200393611B4B9B6903F02003FB60FB6869
:102220004FF48073FB6102233B620323BB6207F11F
:102230001C031946164801F045F94FF40073FB6181
:1022400000233B6200237B6207F11C031946104800
:1022500001F038F90F4B5B68FB62FB6A23F0300337
:10226000FB62FB6A43F0E063FB62FB6A43F030030E
:10227000FB62084AFB6A536000BF3037BD4680BD31
:1022800000380140001002400008014000480040B2
:10229000001401400000014080B400AF00BFBD4603
:1022A00080BC704780B400AFFEE780B400AFFEE7AB
:1022B00080B400AFFEE780B400AFFEE780B400AFAB
:1022C00000BFBD4680BC704780B500AF00F074FB16
:1022D00005F094F90346012B01D006F015FA044BE2
:1022E0001B8801339AB2024B1A8000BF80BD00BF29
:1022F0005C20002080B500AF4E4B1B6803F020032C
:10230000002B5BD04B4B5B68DAB24B4B1A704B4BDC
:102310001B7803F00203DBB2002B30D0484B1B7854
:102320005A1CD1B2464A11701A46434B1978454B94
:102330009954434B1A78444B1B789A420BD93F4A25
:1023400013786FF341031370404B1B68012118464B
:1023500002F0B4FE32E03A4B1B78032B2ED1394BFE
:102360009B780433DAB2384B1A70374B1B780F2B3B
:1023700024D9324A13786FF3410313701EE0314BB6
:102380005A78304B1A702C4B1A782E4B5A702D4BB2
:102390001A782F4B1B789A4210D12A4B5A782D4B22
:1023A0001B789A420AD1254A137843F0020313702E
:1023B000234B02221A70244B0F221A701F4B1B78DA
:1023C00003F00403DBB2002B2FD01A4B1B6803F081
:1023D0008003002B29D0204B1A78204B1B789A427F
:1023E00010D21D4B1B781A461D4B9A5C114B5A603C
:1023F000194B1B780133DAB2174B1A70194B0022B4
:102400001A8012E0184B1B68DA68174B1B6822F021
:102410008002DA60094A13786FF3820313700B4B62
:102420001B680121184602F049FE0F4802F074FAB9
:1024300000BF80BD003801405820002054200020FB
:10244000732000208820002074200020E41D00203C
:102450005E2000205F2000205A200020592000200C
:10246000642000205C200020C81E002080B400AF43
:1024700000BFBD4680BC704780B400AF4C4B00220B
:102480001A808BE04A4B1B881A464A4B53F832306D
:102490009A68474B1B884749DB000B44B3F904306B
:1024A0001340002B35D0444B1A88414B1B881946EA
:1024B000424B33F8113013409BB2002B21D13C4BDF
:1024C0001B881A463E4B33F81220394B1B8839497A
:1024D000DB000B44DB889A425AD9354B1B881A46DD
:1024E000374B002123F81210334B1A88304B1B88CE
:1024F0001946324B33F8113013439AB22E4B1A80DF
:1025000046E02B4B1B881A462D4B002123F8121056
:102510003EE0294B1A88264B1B881946274B33F877
:10252000113013409BB2002B2BD0214B1B881A4635
:10253000234B33F812201E4B1B881E49DB000B4433
:10254000DB889A4224D91A4B1B881A461C4B00215F
:1025500023F81210184B1B881AB2154B1B8819460A
:10256000164B33F811301BB2DB431BB213401BB2C6
:102570009AB2114B1A80134A137843F00803137070
:1025800006E00B4B1B881A460D4B002123F8121056
:10259000074B1B8801339AB2054B1A80044B1B88EA
:1025A000012B7FF66FAF00BF00BFBD4680BC7047F8
:1025B000E020002004000020E42000201C00002077
:1025C000982000205420002080B500AF00224FF456
:1025D00000710B4801F00AF900224FF6FF7108481C
:1025E00001F004F9002248F24F01064801F0FEF81C
:1025F00000224FF68751044801F0F8F800BF80BD73
:102600000018014000100140000C014080B400AFF0
:10261000074B00221A70074B00221A70064B00224B
:102620001A70064B00221A7000BFBD4680BC70476E
:1026300028220020E320002029220020E220002080
:1026400080B485B000AF0346FB710023BB60FB790B
:102650000F2B01D9002319E00023FB810EE0FA794A
:10266000F9890D4813469B0013440B4450F823305E
:10267000BA681344BB60FB890133FB81FB89042BDF
:10268000EDD9BB68054AA2FB03239B081846143703
:10269000BD4680BC704700BFE8200020CDCCCCCC2C
:1026A00080B586B000AF0346FB7107F10C03002232
:1026B0001A605A609A60FB79FB6001233B6100233A
:1026C0007B6107F10C031946064800F061FB0346E5
:1026D000002B01D0002300E0012318461837BD4627
:1026E00080BD00BF741E0020B0B500AF5E4B1B78EC
:1026F000022B00F0A780022B00F3AC80002B02D04D
:10270000012B39D0A6E0594B1B78072B0ED801229C
:102710001021574801F06AF800222021544801F0A6
:1027200065F8524B1A78534B1A700FE001222021A2
:102730004F4801F05BF8002210214D4801F056F897
:102740004A4B1B78083BDAB24A4B1A70494B1B784C
:102750001846FFF7A5FF0346002B09D0464800F0B6
:1027600031FA414B1B780133DAB23F4B1A7078E0F3
:102770003D4B02221A7074E03F4B1B681B6803F04C
:102780000203002B68D03C4800F0CAFA364B002206
:102790001A703A4B1B78042B03D9384B00221A705D
:1027A0005FE0324B1B780F2B03D9304B00221A709D
:1027B00057E02E4B1B781C46304B1B781D462E488D
:1027C00000F0DAFA02462E4923469B0023442B44AC
:1027D00041F82320254B1B78244A127814461846CA
:1027E000FFF72EFF0346274A42F824301F4B1B7881
:1027F0000133DAB21D4B1A701C4B1B780F2B2DD9ED
:102800001A4B00221A70204B1B7803F02003DBB216
:10281000002B04D01C4A137843F0400313701A4A6B
:10282000137843F020031370144B1B780133DAB292
:10283000124B1A70114B1B78042B11D90F4B00222D
:102840001A700EE0FFF752F80B48FFF7D9FBFFF7BD
:10285000DDFE06E000BF04E000BF02E000BF00E0D4
:1028600000BF00BFB0BD00BFE22000202822002032
:1028700000100140E3200020741E002029220020C7
:10288000E8200020A02000205420002080B483B045
:1028900000AF0023FB800023BB8012E0BB880F4AFF
:1028A00052F82330B3F5FA7F08D9BB88012202FA27
:1028B00003F37B80FA887B881343FB80BB8801335A
:1028C000BB80BB880F2BE9D9FB8823F0C003FB80BA
:1028D000FB8818460C37BD4680BC7047A0200020FE
:1028E000002103E00B4B5B58435004310A480B4B6B
:1028F00042189A42F6D30A4A02E0002342F8043B07
:10290000084B9A42F9D3FFF7B1FD06F057F9FEF7ED
:1029100029FF70476C9C0008000000203000002058
:102920003000002070220020FEE7000080B500AFDC
:10293000084B1B68074A43F010031360032000F0A4
:1029400077FC0F2000F008F8FFF726FB002318465D
:1029500080BD00BF0020024080B582B000AF78602B
:10296000124B1A68124B1B7819464FF47A73B3FB5B
:10297000F1F3B2FBF3F3184600F08FFC0346002B93
:1029800001D001230EE07B680F2B0AD80022796862
:102990004FF0FF3000F057FC064A7B6813600023BD
:1029A00000E0012318460837BD4680BD0000002026
:1029B000280000202400002080B400AF054B1B78C5
:1029C0001A46054B1B681344034A136000BFBD46FB
:1029D00080BC7047280000202C22002080B400AF6B
:1029E000024B1B681846BD4680BC70472C22002055
:1029F00080B586B000AF78600023FB7500233B6193
:102A00000023BB600023FB607B68002B01D1012306
:102A1000CEE07B689B68002B7B689B6A002B09D10A
:102A20007B680022DA627B68002283F824207868C1
:102A3000FFF7E6FA786800F0F5FA0346FB757B6865
:102A40009B6A03F01003002B40F0A980FB7D002B54
:102A500040F0A5807B689B6A23F4885323F002032F
:102A600043F002027B689A627B685A687B681B6845
:102A700051498B420AD17B68DB69B3F5402F02D004
:102A80007B68DB6904E04FF4002301E07B68DB69CD
:102A90001A437B681B7B5B001343BA681343BB601C
:102AA0007B689B68B3F5807F03D07B689B68012BB4
:102AB00002D14FF4807300E000233A6913433B6175
:102AC0007B681B7D012B19D17B681B7B002B09D1F7
:102AD0007B689B69013B5A033B69134343F40063E2
:102AE0003B610BE07B689B6A43F020027B689A6243
:102AF0007B68DB6A43F001027B68DA627B681B68F3
:102B00005B6823F469417B681B683A690A435A6031
:102B10007B681B689A68294B13407A681268B96809
:102B20000B4393607B689B68B3F5807F03D07B6821
:102B30009B68012B04D17B681B69013B1B05FB6073
:102B40007B681B68DB6A23F470017B681B68FA688A
:102B50000A43DA627B681B689A68194B1340BA68AB
:102B60009A420BD17B680022DA627B689B6A23F071
:102B7000030343F001027B689A6218E07B689B6A5A
:102B800023F0120343F010027B689A627B68DB6AD1
:102B900043F001027B68DA620123FB7507E07B6882
:102BA0009B6A43F010027B689A620123FB75FB7DF0
:102BB00018461837BD4680BD003C0140FDF7E1FFD7
:102BC000FE0E1FFF80B584B000AF78600023FB735A
:102BD0007B6893F82430012B01D1022398E07B68B5
:102BE000012283F82420786800F0CAF90346FB73B9
:102BF000FB7B002B40F087807B689B6A23F440734B
:102C000023F0010343F480727B689A627B681B683F
:102C1000414A934205D1414B5B6803F47023002B7A
:102C200015D17B689B6A23F480127B689A627B686B
:102C30001B685B6803F48063002B26D07B689B6A6B
:102C400023F4405343F480527B689A621DE07B6812
:102C50009B6A43F480127B689A627B681B682F4AE8
:102C6000934204D07B681B682B4A93420DD12B4BB7
:102C70005B6803F48063002B07D07B689B6A23F4B6
:102C8000405343F480527B689A627B689B6A03F4EA
:102C90008053002B06D07B68DB6A23F006027B683A
:102CA000DA6202E07B680022DA627B68002283F845
:102CB00024207B681B686FF002021A607B681B6827
:102CC0009B6803F46023B3F5602F13D17B681B6806
:102CD000114A934205D1114B5B6803F47023002B1A
:102CE00008D17B681B689A687B681B6842F4A00265
:102CF0009A600CE07B681B689A687B681B6842F4EA
:102D000080129A6003E07B68002283F82420FB7B1A
:102D100018461037BD4680BD002801400024014000
:102D200080B584B000AF78600023FB737B6893F8B4
:102D30002430012B01D102231AE07B68012283F8A1
:102D40002420786800F06EF90346FB73FB7B002BB0
:102D500009D17B689B6A23F4885323F0010343F075
:102D600001027B689A627B68002283F82420FB7B47
:102D700018461037BD4680BD80B483B000AF786080
:102D80007B681B68DB6C18460C37BD4680BC7047FF
:102D900080B485B000AF786039600023FB730023F6
:102DA000BB607B6893F82430012B01D10223DCE067
:102DB0007B68012283F824203B685B68062B1CD8C3
:102DC0007B681B68596B3B685A6813469B00134429
:102DD000053B1F2202FA03F3DB4319403B681868E6
:102DE0003B685A6813469B001344053B00FA03F204
:102DF0007B681B680A435A633CE03B685B680C2BAA
:102E00001CD87B681B68196B3B685A6813469B008B
:102E10001344233B1F2202FA03F3DB4319403B68B0
:102E200018683B685A6813469B001344233B00FA1A
:102E300003F27B681B680A431A631BE07B681B680C
:102E4000D96A3B685A6813469B001344413B1F22D2
:102E500002FA03F3DB4319403B6818683B685A6881
:102E600013469B001344413B00FA03F27B681B6846
:102E70000A43DA623B681B68092B1CD97B681B6814
:102E8000D9683B681A6813465B0013441E3B07224F
:102E900002FA03F3DB4319403B6898683B681A6801
:102EA00013465B0013441E3B00FA03F27B681B6869
:102EB0000A43DA6019E07B681B6819693B681A6885
:102EC00013465B001344072202FA03F3DB43194065
:102ED0003B6898683B681A6813465B00134400FA25
:102EE00003F27B681B680A431A613B681B68102B5E
:102EF00003D03B681B68112B32D17B681B681D4ACD
:102F0000934225D17B681B689B6803F40003002B68
:102F100026D17B681B689A687B681B6842F40002B4
:102F20009A603B681B68102B1AD1134B1B68134A1D
:102F3000A2FB03239A0C13469B0013445B00BB6067
:102F400002E0BB68013BBB60BB68002BF9D107E026
:102F50007B689B6A43F020027B689A620123FB73C3
:102F60007B68002283F82420FB7B18461437BD467B
:102F700080BC7047002401400000002083DE1B431A
:102F800080B584B000AF78600023FB600023BB6095
:102F90007B681B689B6803F00103012B39D07B68B9
:102FA0001B689A687B681B6842F001029A601B4BA1
:102FB0001B681B4AA2FB03239B0CBB6002E0BB689F
:102FC000013BBB60BB68002BF9D1FFF707FDF86040
:102FD00018E0FFF703FD0246FB68D31A022B11D954
:102FE0007B689B6A43F010027B689A627B68DB6AAD
:102FF00043F001027B68DA627B68002283F82420B8
:10300000012307E07B681B689B6803F00103012B29
:10301000DFD1002318461037BD4680BD00000020D8
:1030200083DE1B4380B584B000AF78600023FB6073
:103030007B681B689B6803F00103012B27D17B6829
:103040001B689A687B681B6822F001029A60FFF790
:10305000C5FCF86014E0FFF7C1FC0246FB68D31A18
:10306000022B0DD97B689B6A43F010027B689A6241
:103070007B68DB6A43F001027B68DA62012307E0C8
:103080007B681B689B6803F00103012BE3D00023DE
:1030900018461037BD4680BD80B485B000AF78605B
:1030A0007B6803F00703FB600C4BDB68BB60BA680E
:1030B0004FF6FF031340BB60FB681A02BB68134363
:1030C00043F0BF6343F40033BB60044ABB68D36082
:1030D00000BF1437BD4680BC704700BF00ED00E064
:1030E00080B400AF044BDB681B0A03F007031846EB
:1030F000BD4680BC704700BF00ED00E080B483B0E7
:1031000000AF0346FB7197F90730002B0BDBFB790F
:1031100003F01F02064997F907305B09012000FA06
:1031200002F241F8232000BF0C37BD4680BC704737
:1031300000E100E080B483B000AF03463960FB716A
:1031400097F90730002B0ADB3B68DAB20C4997F994
:1031500007301201D2B20B4483F800230AE03B6827
:10316000DAB20849FB7903F00F03043B1201D2B233
:103170000B441A7600BF0C37BD4680BC704700BFB9
:1031800000E100E000ED00E080B489B000AFF8603D
:10319000B9607A60FB6803F00703FB61FB69C3F168
:1031A0000703042B28BF0423BB61FB690433062BF0
:1031B00002D9FB69033B00E000237B614FF0FF3243
:1031C000BB6902FA03F3DA43BB681A407B699A4091
:1031D0004FF0FF317B6901FA03F3D9437B680B4061
:1031E000134318462437BD4680BC704780B582B073
:1031F00000AF78607B68013BB3F1807F01D301238E
:103200000FE00A4A7B68013B53600F214FF0FF300B
:10321000FFF790FF054B00229A60044B07221A60CB
:10322000002318460837BD4680BD00BF10E000E00F
:1032300080B582B000AF78607868FFF72DFF00BFDF
:103240000837BD4680BD80B586B000AF0346B96083
:103250007A60FB7300237B61FFF742FF78617A6835
:10326000B9687869FFF790FF024697F90F30114669
:103270001846FFF75FFF00BF1837BD4680BD80B519
:1032800082B000AF0346FB7197F907301846FFF78D
:1032900035FF00BF0837BD4680BD80B582B000AFA6
:1032A00078607868FFF7A2FF034618460837BD46E6
:1032B00080BD000080B584B000AF78600023FB7350
:1032C0007B6893F82130022B05D07B6804229A6337
:1032D0000123FB73D6E07B681B681A687B681B6858
:1032E00022F00E021A607B681B681A687B681B68F4
:1032F00022F001021A607B681B681A46644B9A42EE
:1033000058D97B681B68634A93424FD07B681B681F
:10331000614A934248D07B681B68604A934240D020
:103320007B681B685E4A934238D07B681B685D4AA5
:10333000934230D07B681B685B4A934228D07B68FD
:103340001B68534A934220D07B681B68574A9342BC
:1033500019D07B681B68564A934212D07B681B6861
:10336000544A93420AD07B681B68534A934202D165
:103370004FF480531BE04FF4803318E04FF4807318
:1033800015E0102313E0012311E04FF080730EE0ED
:103390004FF480130BE04FF4803308E04FF4805378
:1033A00005E04FF4807302E0102300E00123434A5C
:1033B000536057E07B681B68364A93424FD07B6866
:1033C0001B68354A934248D07B681B68334A934256
:1033D00040D07B681B68324A934238D07B681B68B8
:1033E000304A934230D07B681B682F4A934228D0E2
:1033F0007B681B68264A934220D07B681B682B4A57
:10340000934219D07B681B68294A934212D07B688B
:103410001B68284A93420AD07B681B68264A93425D
:1034200002D14FF480531BE04FF4803318E04FF487
:10343000807315E0102313E0012311E04FF0807337
:103440000EE04FF480130BE04FF4803308E04FF4AC
:10345000805305E04FF4807302E0102300E0012365
:10346000174A53607B68012283F821207B68002281
:1034700083F820207B685B6B002B03D07B685B6B41
:1034800078689847FB7B18461037BD4680BD00BF63
:1034900080000240080002401C0002403000024050
:1034A00044000240580002406C0002400804024000
:1034B0001C04024030040240440402400004024064
:1034C0000000024080B48BB000AF78603960002308
:1034D0007B6200233B6279E101227B6A02FA03F3FB
:1034E000FB613B681B68FA691340BB61BA69FB6901
:1034F0009A4240F068813B685B68A04A93425ED084
:103500009E4A934275D89E4A934258D09C4A934211
:103510006FD89C4A934252D09A4A934269D89A4AA9
:1035200093424CD0984A934263D8984A934246D0EB
:10353000964A93425DD8122B2AD8122B59D801A251
:1035400052F823F0BF35000899350008AB35000864
:10355000ED350008F3350008F3350008F3350008B1
:10356000F3350008F3350008F3350008F33500089B
:10357000F3350008F3350008F3350008F33500088B
:10358000F3350008F3350008A1350008B53500080B
:103590007F4A934213D02CE03B68DB683B6229E012
:1035A0003B68DB6804333B6224E03B68DB6808333C
:1035B0003B621FE03B68DB680C333B621AE03B6810
:1035C0009B68002B02D104233B6213E03B689B689D
:1035D000012B05D108233B627B68FA691A6109E077
:1035E00008233B627B68FA695A6103E000233B626F
:1035F00000E000BFBB69FF2B01D87B6801E07B685E
:1036000004337B61BB69FF2B02D87B6A9B0002E01D
:103610007B6A083B9B003B617B691A680F213B6911
:1036200001FA03F3DB431A40396A3B6901FA03F3F9
:103630001A437B691A603B685B6803F08053002B78
:1036400000F0C180534B9B69524A43F001039361E0
:10365000504B9B6903F00103BB60BB684E4A7B6A19
:103660009B08023352F82330FB607B6A03F00303AC
:103670009B000F2202FA03F3DB43FA681340FB605E
:103680007B68464A93421FD07B68454A934219D0D3
:103690007B68444A934213D07B68434A93420DD0DF
:1036A0007B68424A934207D07B68414A934201D1EA
:1036B00005230AE0062308E0042306E0032304E0D0
:1036C000022302E0012300E000237A6A02F00302F1
:1036D00092009340FA681343FB602F497B6A9B0872
:1036E0000233FA6841F823203B685B6803F48033B7
:1036F000002B06D02F4B1A682E49BB6913430B6071
:1037000006E02C4B1A68BB69DB432A4913400B6067
:103710003B685B6803F40033002B06D0254B5A68E6
:103720002449BB6913434B6006E0224B5A68BB69CE
:10373000DB43204913404B603B685B6803F4801314
:10374000002B06D01B4B9A681A49BB6913438B6048
:1037500006E0184B9A68BB69DB43164913408B603F
:103760003B685B6803F40013002B25D0114BDA682B
:103770001049BB691343CB6025E000BF0000321045
:103780000000311000002210000021100000121073
:10379000000011100010024000000140000801402C
:1037A000000C0140001001400014014000180140CD
:1037B000001C0140000401400B4BDA68BB69DB438D
:1037C00009491340CB607B6A01337B623B681A680E
:1037D0007B6A22FA03F3002B7FF47EAE00BF00BFAA
:1037E0002C37BD4680BC70470004014080B483B0D4
:1037F00000AF78600B467B8013467B707B78002B94
:1038000003D07A887B681A6103E07B881A047B689E
:103810001A6100BF0C37BD4680BC704780B586B0CA
:1038200000AF78607B68002B01D101236CE27B68DC
:103830001B6803F00103002B00F08780924B5B684C
:1038400003F00C03042B0CD08F4B5B6803F00C03CC
:10385000082B12D18C4B5B6803F48033B3F5803FA7
:103860000BD1894B1B6803F40033002B6CD07B68B1
:103870005B68002B68D1012346E27B685B68B3F587
:10388000803F06D1804B1B687F4A43F4803313602E
:103890002EE07B685B68002B0CD17B4B1B687A4A5F
:1038A00023F480331360784B1B68774A23F480231A
:1038B00013601DE07B685B68B3F5A02F0CD1724BE1
:1038C0001B68714A43F4802313606F4B1B686E4A78
:1038D00043F4803313600BE06B4B1B686A4A23F49C
:1038E00080331360684B1B68674A23F4802313609E
:1038F0007B685B68002B13D0FFF770F8386108E035
:10390000FFF76CF802463B69D31A642B01D90323F5
:10391000FAE15D4B1B6803F40033002BF0D014E098
:10392000FFF75CF8386108E0FFF758F802463B699A
:10393000D31A642B01D90323E6E1534B1B6803F42C
:103940000033002BF0D100E000BF7B681B6803F060
:103950000203002B63D04C4B5B6803F00C03002B7D
:103960000BD0494B5B6803F00C03082B1CD1464B72
:103970005B6803F48033002B16D1434B1B6803F0C4
:103980000203002B05D07B681B69012B01D00123AA
:10399000BAE13D4B1B6823F0F8027B685B69DB00F2
:1039A000394913430B603AE07B681B69002B20D038
:1039B000364B01221A60FFF711F8386108E0FFF773
:1039C0000DF802463B69D31A022B01D903239BE170
:1039D0002D4B1B6803F00203002BF0D02A4B1B6811
:1039E00023F0F8027B685B69DB00274913430B6017
:1039F00015E0264B00221A60FEF7F0FF386108E060
:103A0000FEF7ECFF02463B69D31A022B01D90323D0
:103A10007AE11D4B1B6803F00203002BF0D17B6899
:103A20001B6803F00803002B3AD07B689B69002BCE
:103A300019D0174B01221A60FEF7D0FF386108E059
:103A4000FEF7CCFF02463B69D31A022B01D90323B0
:103A50005AE10D4B5B6A03F00203002BF0D001200A
:103A600000F0D8FA1CE00A4B00221A60FEF7B6FFFD
:103A700038610FE0FEF7B2FF02463B69D31A022B12
:103A800008D9032340E100BF001002400000424279
:103A9000800442429E4B5B6A03F00203002BE9D193
:103AA0007B681B6803F00403002B00F0A680002352
:103AB000FB75974BDB6903F08053002B0DD1944BC2
:103AC000DB69934A43F08053D361914BDB6903F088
:103AD0008053BB60BB680123FB758E4B1B6803F4EE
:103AE0008073002B18D18B4B1B688A4A43F4807378
:103AF0001360FEF773FF386108E0FEF76FFF0246C0
:103B00003B69D31A642B01D90323FDE0814B1B6869
:103B100003F48073002BF0D07B68DB68012B06D1A7
:103B20007B4B1B6A7A4A43F0010313622DE07B68EA
:103B3000DB68002B0CD1764B1B6A754A23F001031E
:103B40001362734B1B6A724A23F0040313621CE076
:103B50007B68DB68052B0CD16D4B1B6A6C4A43F00C
:103B6000040313626A4B1B6A694A43F00103136240
:103B70000BE0674B1B6A664A23F001031362644B38
:103B80001B6A634A23F0040313627B68DB68002B23
:103B900015D0FEF723FF38610AE0FEF71FFF02464B
:103BA0003B69D31A41F28832934201D90323ABE037
:103BB000574B1B6A03F00203002BEED014E0FEF714
:103BC0000DFF38610AE0FEF709FF02463B69D31A90
:103BD00041F28832934201D9032395E04C4B1B6A92
:103BE00003F00203002BEED1FB7D012B05D1484BE6
:103BF000DB69474A23F08053D3617B68DB69002B84
:103C000000F08180424B5B6803F00C03082B61D00D
:103C10007B68DB69022B46D13F4B00221A60FEF71E
:103C2000DDFE386108E0FEF7D9FE02463B69D31A93
:103C3000022B01D9032367E0354B1B6803F00073A7
:103C4000002BF0D17B681B6AB3F5803F08D1304B65
:103C50005B6823F400327B689B682D4913434B60FB
:103C60002B4B5B6823F474127B68196A7B685B6A70
:103C70000B43274913434B60274B01221A60FEF781
:103C8000ADFE386108E0FEF7A9FE02463B69D31A93
:103C9000022B01D9032337E01D4B1B6803F000738F
:103CA000002BF0D02FE01C4B00221A60FEF796FE8E
:103CB000386108E0FEF792FE02463B69D31A022BF8
:103CC00001D9032320E0124B1B6803F00073002B83
:103CD000F0D118E07B68DB69012B01D1012313E0EF
:103CE0000B4B5B68FB60FB6803F480327B681B6AEC
:103CF0009A4206D1FB6803F470127B685B6A9A42B1
:103D000001D0012300E0002318461837BD4680BDCE
:103D100000100240007000406000424280B584B054
:103D200000AF786039607B68002B01D10123D0E0BF
:103D30006A4B1B6803F007033A689A4210D9674B35
:103D40001B6823F0070265493B6813430B60634B14
:103D50001B6803F007033A689A4201D00123B8E0D8
:103D60007B681B6803F00203002B20D07B681B6874
:103D700003F00403002B05D0594B5B68584A43F409
:103D8000E06353607B681B6803F00803002B05D0D9
:103D9000534B5B68524A43F460535360504B5B682B
:103DA00023F0F0027B689B684D4913434B607B68AE
:103DB0001B6803F00103002B40D07B685B68012B7C
:103DC00007D1474B1B6803F40033002B15D10123A7
:103DD0007FE07B685B68022B07D1414B1B6803F0D7
:103DE0000073002B09D1012373E03D4B1B6803F0E6
:103DF0000203002B01D101236BE0394B5B6823F0F8
:103E000003027B685B68364913434B60FEF7E6FDAF
:103E1000F8600AE0FEF7E2FD0246FB68D31A41F2C1
:103E20008832934201D9032353E02D4B5B6803F0A2
:103E30000C027B685B689B009A42EBD1274B1B68A6
:103E400003F007033A689A4210D2244B1B6823F010
:103E5000070222493B6813430B60204B1B6803F0A9
:103E600007033A689A4201D0012332E07B681B685D
:103E700003F00403002B08D0194B5B6823F4E062C5
:103E80007B68DB68164913434B607B681B6803F053
:103E90000803002B09D0124B5B6823F460527B6847
:103EA0001B69DB000E4913434B6000F021F802460A
:103EB0000B4B5B681B0903F00F030A49CB5C22FA2A
:103EC00003F3094A1360094B1B681846FEF744FDCB
:103ED000002318461037BD4680BD00BF00200240B9
:103EE000001002404C9C000800000020240000202C
:103EF00090B48AB000AF2A4B3C1D0FCB84E80F0072
:103F000040F201233B800023FB610023BB610023BF
:103F10007B6200237B6100233B62224B5B68FB6179
:103F2000FB6903F00C03042B02D0082B03D02DE017
:103F30001D4B3B622DE0FB699B0C03F00F0307F167
:103F40002802134413F8243C7B61FB6903F480339B
:103F5000002B13D0134B5B685B0C03F0010307F1DC
:103F60002802134413F8283CBB617B690E4A02FB0C
:103F700003F2BB69B2FBF3F37B6204E07B690B4A9B
:103F800002FB03F37B627B6A3B6202E0064B3B620F
:103F900000BF3B6A18462837BD4690BC704700BF3B
:103FA000A08C00080010024000127A0000093D00B9
:103FB00080B400AF024B1B681846BD4680BC7047FA
:103FC0000000002080B500AFFFF7F2FF0246054B6E
:103FD0005B681B0A03F007030349CB5C22FA03F377
:103FE000184680BD001002405C9C000880B500AF00
:103FF000FFF7DEFF0246054B5B68DB0A03F00703B1
:104000000349CB5C22FA03F3184680BD001002403E
:104010005C9C000880B485B000AF78600A4B1B68D8
:104020000A4AA2FB03235B0A7A6802FB03F3FB60E4
:1040300000BFFB685A1EFA60002BF9D100BF00BF19
:104040001437BD4680BC704700000020D34D62107D
:1040500080B586B000AF786000233B610023FB6031
:104060007B681B6803F00103002B7DD00023FB75E8
:104070004F4BDB6903F08053002B0DD14C4BDB69B8
:104080004B4A43F08053D361494BDB6903F08053C3
:10409000BB60BB680123FB75464B1B6803F4807350
:1040A000002B18D1434B1B68424A43F480731360C2
:1040B000FEF794FC386108E0FEF790FC02463B698D
:1040C000D31A642B01D903236DE03A4B1B6803F428
:1040D0008073002BF0D0364B1B6A03F44073FB60F7
:1040E000FB68002B2ED07B685B6803F44073FA6892
:1040F0009A4227D02E4B1B6A23F44073FB602E4B51
:1041000001221A602C4B00221A60294AFB681362B4
:10411000FB6803F00103002B14D0FEF75FFC38614D
:104120000AE0FEF75BFC02463B69D31A41F2883293
:10413000934201D9032336E01D4B1B6A03F00203AF
:10414000002BEED01A4B1B6A23F440727B685B682D
:10415000174913430B62FB7D012B05D1144BDB691F
:10416000134A23F08053D3617B681B6803F002037A
:10417000002B08D00E4B5B6823F440427B689B68A1
:104180000B4913434B607B681B6803F01003002B43
:1041900008D0074B5B6823F480027B685B690449A5
:1041A00013434B60002318461837BD4680BD00BF3F
:1041B00000100240007000404004424280B582B0CE
:1041C00000AF78607B68002B01D1012341E07B6860
:1041D00093F83D30DBB2002B06D17B68002283F8D8
:1041E0003C207868FDF748FF7B68022283F83D2079
:1041F0007B681A687B6804331946104600F034F96E
:104200007B68012283F846207B68012283F83E20E8
:104210007B68012283F83F207B68012283F84020DD
:104220007B68012283F841207B68012283F84220C9
:104230007B68012283F843207B68012283F84420B5
:104240007B68012283F845207B68012283F83D20AA
:10425000002318460837BD4680BD80B584B000AF46
:10426000786039607B6893F83C30012B01D10223E0
:10427000B3E07B68012283F83C207B68022283F84C
:104280003D207B681B689B68FB60FB6823F077031D
:10429000FB60FB6823F47F43FB607B681B68FA6864
:1042A0009A603B681B68B3F5005F3ED0B3F5005FD2
:1042B00000F28780B3F5805F00F08580B3F5805F02
:1042C0007FD8702B1AD0702B7BD8602B50D0602BEE
:1042D00077D8502B3CD0502B73D8402B58D0402B44
:1042E0006FD8302B64D0302B6BD8202B60D0202B94
:1042F00067D8002B5CD0102B5AD062E07B6818681E
:104300003B6899683B685A683B68DB6800F02BFAA9
:104310007B681B689B68FB60FB6843F07703FB606E
:104320007B681B68FA689A604EE07B6818683B6897
:1043300099683B685A683B68DB6800F014FA7B6850
:104340001B689A687B681B6842F480429A603BE075
:104350007B6818683B6859683B68DB681A4600F060
:104360008BF97B681B685021184600F0E2F92BE0BE
:104370007B6818683B6859683B68DB681A4600F040
:10438000A9F97B681B686021184600F0D2F91BE090
:104390007B6818683B6859683B68DB681A4600F020
:1043A0006BF97B681B684021184600F0C2F90BE0EE
:1043B0007B681A683B681B681946104600F0B9F91B
:1043C00002E000BF00E000BF7B68012283F83D20CF
:1043D0007B68002283F83C20002318461037BD4636
:1043E00080BD80B582B000AF786039607B6893F89B
:1043F0003C30012B01D1022331E07B68012283F89C
:104400003C207B68022283F83D203968786800F000
:10441000A5F80346002B09D07B68012283F83D20D4
:104420007B68002283F83C20012318E07B681B682E
:10443000DA687B681B6822F04002DA607B681B68E0
:10444000DA687B681B6822F48042DA607B680122AC
:1044500083F83D207B68002283F83C200023184627
:104460000837BD4680BD000080B485B000AF7860DD
:1044700039607B681B68FB607B68334A934213D0CA
:104480007B68324A93420FD07B68B3F1804F0BD0E8
:104490007B682F4A934207D07B682E4A934203D011
:1044A0007B682D4A934208D1FB6823F07003FB60C0
:1044B0003B685B68FA681343FB607B68224A93425F
:1044C00013D07B68214A93420FD07B68B3F1804FB1
:1044D0000BD07B681E4A934207D07B681D4A9342EB
:1044E00003D07B681C4A934208D1FB6823F44073D5
:1044F000FB603B68DB68FA681343FB60FB6823F0F2
:1045000080023B685B691343FB607B68FA681A6052
:104510003B689A687B68DA623B681A687B689A62D3
:104520007B68094A934203D07B68084A934203D1CF
:104530003B681A697B681A637B6801225A6100BF75
:104540001437BD4680BC7047002C01400034014048
:104550000004004000080040000C004080B586B018
:1045600000AF786039607B681B689B687B617B6902
:1045700023F070037B613B685B687A6913437B615E
:104580007B6923F007037B613B681B687A691343EF
:104590007B617B681B687A699A603B685B68702BFB
:1045A0001AD0702B60D8602B54D0602B5CD8502B65
:1045B00046D0502B58D8402B19D0402B54D8302BF4
:1045C00054D0302B50D8202B50D0202B4CD8002B3F
:1045D0004CD0102B4AD047E07B6818683B68D968FC
:1045E0003B689A683B681B6900F0BDF83FE03B6898
:1045F0001B68052B01D101233AE07B681B681B6A0D
:104600003B617B681B681A6A7B681B6822F00102A9
:104610001A627B681B689B69FB60FB6823F0F003F0
:10462000FB603B681B691B01FA681343FB607B68F6
:104630001B68FA689A617B681B683A691A6216E01F
:104640007B6818683B6899683B681B691A4600F0EC
:1046500013F80CE07B6818683B6899683B681B6935
:104660001A4600F037F802E000BF00E000BF002368
:1046700018461837BD4680BD80B487B000AFF860DB
:10468000B9607A60FB681B6A7B61FB681B6A23F078
:104690000102FB681A62FB689B693B613B6923F07E
:1046A000F0033B617B681B013A6913433B617B6903
:1046B00023F00A037B617A69BB6813437B61FB6863
:1046C0003A699A61FB687A691A6200BF1C37BD4675
:1046D00080BC704780B487B000AFF860B9607A6082
:1046E000FB681B6A23F01002FB681A62FB689B6977
:1046F0007B61FB681B6A3B617B6923F470437B61D0
:104700007B681B037A6913437B613B6923F0A00339
:104710003B61BB681B013A6913433B61FB687A69E3
:104720009A61FB683A691A6200BF1C37BD4680BCBB
:10473000704780B485B000AF786039607B689B6853
:10474000FB60FB6823F07003FB603A68FB6813436F
:1047500043F00703FB607B68FA689A6000BF143778
:10476000BD4680BC704780B487B000AFF860B960C8
:104770007A603B60FB689B687B617B6923F47F43C5
:104780007B613B681A027B681A43BB6813437A69F2
:1047900013437B61FB687A699A6000BF1C37BD4692
:1047A00080BC704780B485B000AF786039607B68AA
:1047B00093F83C30012B01D1022350E07B680122A9
:1047C00083F83C207B68022283F83D207B681B68CD
:1047D0005B68FB607B681B689B68BB60FB6823F0C1
:1047E0007003FB603B681B68FA681343FB607B68DF
:1047F0001B68FA685A607B681B681B4A934218D092
:104800007B681B68194A934213D07B681B68B3F11D
:10481000804F0ED07B681B68154A934209D07B6895
:104820001B68144A934204D07B681B68124A934267
:104830000CD1BB6823F08003BB603B685B68BA683F
:104840001343BB607B681B68BA689A607B6801226F
:1048500083F83D207B68002283F83C200023184623
:104860001437BD4680BC7047002C01400034014025
:104870000004004000080040000C004080B582B0F9
:1048800000AF78607B68002B01D101233FE07B689B
:1048900093F83930DBB2002B06D17B68002283F815
:1048A00038207868FDF754FC7B68242283F839208F
:1048B0007B681B68DA687B681B6822F40052DA6048
:1048C000786800F05DFA7B681B681A697B681B6872
:1048D00022F490421A617B681B685A697B681B68E6
:1048E00022F02A025A617B681B68DA687B681B68C1
:1048F00042F40052DA607B680022DA637B6820228F
:1049000083F839207B68202283F83A200023184658
:104910000837BD4680BD000080B588B000AF786024
:104920007B681B681B68FB617B681B68DB68BB617D
:104930007B681B685B697B6100233B610023FB6034
:10494000FB6903F00F033B613B69002B0DD1FB6951
:1049500003F02003002B08D0BB6903F02003002BD9
:1049600003D0786800F08BF9D0E03B69002B00F0B1
:10497000B0807B6903F00103002B05D1BB6903F410
:104980009073002B00F0A580FB6903F00103002B5E
:104990000AD0BB6903F48073002B05D07B68DB6B06
:1049A00043F001027B68DA63FB6903F00403002B28
:1049B0000AD07B6903F00103002B05D07B68DB6B19
:1049C00043F002027B68DA63FB6903F00203002B09
:1049D0000AD07B6903F00103002B05D07B68DB6BF9
:1049E00043F004027B68DA63FB6903F00803002BE1
:1049F0000FD0BB6903F02003002B04D17B6903F0C7
:104A00000103002B05D07B68DB6B43F008027B6859
:104A1000DA637B68DB6B002B77D0FB6903F0200344
:104A2000002B07D0BB6903F02003002B02D078686D
:104A300000F025F97B681B685B6903F04003002BDD
:104A400014BF01230023DBB2FB607B68DB6B03F048
:104A50000803002B02D1FB68002B31D0786800F0EE
:104A600076F87B681B685B6903F04003002B23D05A
:104A70007B681B685A697B681B6822F040025A6198
:104A80007B685B6B002B13D07B685B6B214A5A639E
:104A90007B685B6B1846FEF70DFC0346002B16D0B7
:104AA0007B685B6B5B6B7A68526B104698470EE0D5
:104AB000786800F043F80AE0786800F03FF806E014
:104AC000786800F03BF87B680022DA631DE000BFE5
:104AD0001BE0FB6903F08003002B08D0BB6903F0E7
:104AE0008003002B03D0786800F062F80EE0FB69C9
:104AF00003F04003002B09D0BB6903F04003002BF7
:104B000004D0786800F0A3F800E000BF2037BD466D
:104B100080BD00BF894B000880B483B000AF7860CF
:104B200000BF0C37BD4680BC704780B483B000AF77
:104B3000786000BF0C37BD4680BC704780B483B03E
:104B400000AF786000BF0C37BD4680BC704780B4B2
:104B500083B000AF78607B681B68DA687B681B688D
:104B600022F49072DA607B681B685A697B681B6864
:104B700022F001025A617B68202283F83A2000BFAC
:104B80000C37BD4680BC704780B584B000AF7860FC
:104B90007B685B6AFB60FB680022DA85FB680022A9
:104BA000DA84F868FFF7CAFF00BF1037BD4680BD42
:104BB00080B485B000AF78607B6893F83930DBB2A1
:104BC000212B3ED17B689B68B3F5805F14D17B6855
:104BD0001B69002B10D17B681B6AFB60FB681B887C
:104BE0001A467B681B68C2F308025A607B681B6A1E
:104BF0009A1C7B681A6208E07B681B6A591C7A68F9
:104C000011621A787B681B685A607B68DB8C9BB2E8
:104C1000013B9BB27A681946D184002B0FD17B6887
:104C20001B68DA687B681B6822F08002DA607B68A8
:104C30001B68DA687B681B6842F04002DA60002378
:104C400000E0022318461437BD4680BC704780B58B
:104C500082B000AF78607B681B68DA687B681B688D
:104C600022F04002DA607B68202283F839207868DD
:104C7000FFF752FF002318460837BD4680BD80B5B8
:104C800084B000AF78607B6893F83A30DBB2222BB7
:104C900070D17B689B68B3F5805F17D17B681B6917
:104CA000002B13D10023FB607B689B6ABB607B6891
:104CB0001B685B689BB2C3F308039AB2BB681A8097
:104CC0007B689B6A9A1C7B689A6226E07B689B6A79
:104CD000FB600023BB607B689B68B3F5805F07D0F7
:104CE0007B689B68002B0AD17B681B69002B06D16F
:104CF0007B681B685B68DAB2FB681A7008E07B6847
:104D00001B685B68DBB203F07F03DAB2FB681A70E2
:104D10007B689B6A5A1C7B689A627B68DB8D9BB2BE
:104D2000013B9BB27A681946D185002B20D17B6864
:104D30001B68DA687B681B6822F02002DA607B68F7
:104D40001B68DA687B681B6822F48072DA607B6813
:104D50001B685A697B681B6822F001025A617B68F4
:104D6000202283F83A207868FFF7DFFE002302E074
:104D7000002300E0022318461037BD4680BD000026
:104D800080B584B000AF78607B681B681B6923F432
:104D900040517B68DA687B681B680A431A617B684C
:104DA0009A687B681B691A437B685B691343BB6025
:104DB0007B681B68DB6823F4B05323F00C037A682C
:104DC0001268B9680B43D3607B681B685B6923F486
:104DD00040717B689A697B681B680A435A617B68EB
:104DE0001B682C4A934203D1FFF700F9F86002E0F8
:104DF000FFF7E8F8F860FA6813469B0013449A003E
:104E00001A447B685B689B00B2FBF3F3224AA2FB67
:104E100003235B091901FA6813469B0013449A00A7
:104E20001A447B685B689B00B2FBF3F21A4BA3FB4E
:104E300002035B09642000FB03F3D31A1B01323326
:104E4000154AA2FB03235B0903F0F0031944FA6837
:104E500013469B0013449A001A447B685B689B00CE
:104E6000B2FBF3F20C4BA3FB02035B09642000FBD3
:104E700003F3D31A1B013233074AA2FB03235B0956
:104E800003F00F027B681B680A449A6000BF10376A
:104E9000BD4680BD003801401F85EB5180B485B010
:104EA00000AFEFF30583BB60BB68002B0FD1EFF3BE
:104EB00010837B607B68002B09D1104B1B68022B91
:104EC00009D1EFF311833B603B68002B03D06FF0F7
:104ED0000503FB600CE0094B1B68002B05D1074B59
:104EE00001221A600023FB6002E04FF0FF33FB60F9
:104EF000FB6818461437BD4680BC70474C00002044
:104F000080B584B000AFEFF30583BB60BB68002BB6
:104F10000FD1EFF310837B607B68002B09D1114B1D
:104F20001B68022B09D1EFF311833B603B68002B18
:104F300003D06FF00503FB600EE00A4B1B68012BEA
:104F400007D1084B02221A6001F00AFF0023FB6020
:104F500002E04FF0FF33FB60FB6818461037BD4698
:104F600080BD00BF4C00002080B592B004AFF86057
:104F7000B9607A6000237B61EFF305837B627B6A13
:104F8000002B40F09480EFF310833B623B6A002BD0
:104F900040F08D80484B1B68022B06D1EFF3118344
:104FA000FB61FB69002B40F08280FB68002B7ED008
:104FB00080233B631823FB620023FB7607F11B036E
:104FC0007B634FF0FF33BB627B68002B45D07B686F
:104FD0001B68002B02D07B681B687B637B689B6926
:104FE000002B02D07B689B69FB62FB6A002B08D018
:104FF000FB6A382B05D87B685B6803F00103002B44
:1050000001D0002354E07B685B69002B03D07B68F0
:105010005B699B083B637B689B68002B0ED07B68B9
:10502000DB685B2B0AD97B681B69002B06D07B6889
:105030005B69002B02D00123BB6210E07B689B6898
:10504000002B0CD17B68DB68002B08D17B681B69C7
:10505000002B04D10023BB6201E00023BB62BB6ACA
:10506000012B10D17B681B697A68926802920193C8
:10507000FB6A0093BB683A6B796BF86801F0A4FC9B
:1050800003467B6113E0BB6A002B10D13B6B9AB2E5
:1050900007F114030193FB6A0093BB68796BF8680E
:1050A00001F0EEFC0346012B01D000237B617B69FC
:1050B00018463837BD4680BD4C00002080B58AB008
:1050C00002AF786039607B68FB61FB69002B02D01E
:1050D0003B68002B03DA6FF00303FB6045E04FF001
:1050E000FF33FB60EFF30583BB61BB69002B0FD17E
:1050F000EFF310837B617B69002B09D11D4B1B688B
:10510000022B25D1EFF311833B613B69002B1FD0AC
:105110000023BB6007F108030093002301223968D4
:10512000F86902F0A3FC07F10C03002200920022B0
:105130000021F86902F09AFCBB68002B15D00E4BD9
:105140004FF080521A60BFF34F8FBFF36F8F0CE0A8
:10515000002301223968F86902F0E4FB07F10C032F
:1051600000220021F86902F0DDFBFB6818462037B9
:10517000BD4680BD4C00002004ED00E080B586B047
:1051800000AF7860EFF305833B613B69002B0FD1E3
:10519000EFF31083FB60FB68002B09D10D4B1B68FC
:1051A000022B09D1EFF31183BB60BB68002B03D046
:1051B0006FF005037B6107E000237B617B68002BB8
:1051C00002D0786801F098FD7B6918461837BD4613
:1051D00080BD00BF4C00002080B584B000AF786077
:1051E000786803F003F9F860FB68002B05D0FB68D2
:1051F0001B68FA6852681046984700BF1037BD46D2
:1052000080BD000080B58EB002AFF8607A603B6070
:105210000B46FB720023BB62EFF30583BB61BB69E6
:10522000002B6AD1EFF310837B617B69002B64D183
:10523000344B1B68022B05D1EFF311833B613B69B3
:10524000002B5AD1FB68002B57D0082003F0DEFA60
:10525000F861FB69002B50D0FB69FA681A60FB69A2
:105260007A685A60FB7A002B02D100237B6201E04E
:1052700001237B624FF0FF333B620023FB623B68FC
:10528000002B1CD03B681B68002B02D03B681B68BE
:10529000FB623B689B68002B06D03B68DB682F2BCA
:1052A00002D901233B620CE03B689B68002B08D1CC
:1052B0003B68DB68002B04D100233B6201E0002344
:1052C0003B623B6A012B0CD13B689B6801930E4B00
:1052D0000093FB697A6A0121F86A02F04EFDB86218
:1052E0000BE03B6A002B08D1074B0093FB697A6AFD
:1052F0000121F86A02F020FDB862BB6A1846303717
:10530000BD4680BD4C000020D951000880B58AB050
:1053100002AF786039607B68BB61EFF305837B6126
:105320007B69002B0FD1EFF310833B613B69002BAE
:1053300009D1154B1B68022B09D1EFF31183FB60D8
:10534000FB68002B03D06FF00503FB6117E0BB691E
:10535000002B03D16FF00303FB6110E000230093E7
:1053600000233A680421B86902F076FD0346012B58
:1053700002D10023FB6102E06FF00203FB61FB69D5
:1053800018462037BD4680BD4C00002080B588B04F
:1053900000AF78600023FB61EFF305837B617B69DD
:1053A000002B3DD1EFF310833B613B69002B37D1DC
:1053B0001E4B1B68022B05D1EFF31183FB60FB68CA
:1053C000002B2DD14FF0FF33BB617B68002B15D034
:1053D0007B689B68002B06D07B68DB681F2B02D99B
:1053E0000123BB610CE07B689B68002B08D17B68C4
:1053F000DB68002B04D10023BB6101E00023BB610B
:10540000BB69012B06D17B689B68184600F0D2F976
:10541000F86105E0BB69002B02D100F002FAF861E7
:10542000FB6918462037BD4680BD00BF4C000020F8
:1054300080B58CB002AFF860B9607A6000237B62FF
:10544000EFF30583BB61BB69002B40F08680EFF36F
:1054500010837B617B69002B7FD1424B1B68022B41
:1054600005D1EFF311833B613B69002B75D1FB68DC
:10547000002B72D0BA68FB689A426ED84FF0FF33A7
:105480003B627B68002B15D07B689B68002B06D0A5
:105490007B68DB684F2B02D901233B620CE07B6801
:1054A0009B68002B08D17B68DB68002B04D10023AC
:1054B0003B6201E000233B623B6AB3F1FF3F4CD00B
:1054C000FB68012B28D13B6A012B0AD17B689B68C2
:1054D0000322009200220021012000F0D3FA78621A
:1054E00005E003220021012000F043FB78627B6A83
:1054F000002B22D0BB68002B1FD0002300220021EC
:10550000786A00F001FC0346012B16D0786A01F09E
:105510008BF800237B6210E03B6A012B08D17B688B
:105520009B681A46B968F86800F084FB786204E06A
:10553000B968F86800F0B5FB78627B6A002B0CD084
:105540007B68002B03D07B681B68FB6101E00023B4
:10555000FB61F969786A01F0B1F97B6A184628376E
:10556000BD4680BD4C00002080B588B000AF78609B
:1055700039607B68BB610023FB61BB69002B03D1F1
:105580006FF00303FB614BE0EFF305837B617B6905
:10559000002B0FD1EFF310833B613B69002B09D146
:1055A000224B1B68022B28D1EFF31183FB60FB68B1
:1055B000002B22D03B68002B03D06FF00303FB616C
:1055C0002DE00023BB6007F108031A460021B869EB
:1055D00000F0AAFF0346012B03D06FF00203FB612A
:1055E0001DE0BB68002B1AD0114B4FF080521A609F
:1055F000BFF34F8FBFF36F8F11E03968B86900F0C8
:1056000087FE0346012B0BD03B68002B03D06FF0C5
:105610000103FB6104E06FF00203FB6100E000BFE7
:10562000FB6918462037BD4680BD00BF4C000020F6
:1056300004ED00E080B588B000AF78607B68BB61A6
:105640000023FB61BB69002B03D16FF00303FB61F7
:105650003EE0EFF305837B617B69002B0FD1EFF315
:1056600010833B613B69002B09D11C4B1B68022B4B
:1056700020D1EFF31183FB60FB68002B1AD00023CD
:10568000BB6007F108031946B86900F0D3FC034674
:10569000012B03D06FF00203FB6118E0BB68002B05
:1056A00015D00F4B4FF080521A60BFF34F8FBFF3EE
:1056B0006F8F0CE0002300220021B86900F024FB6A
:1056C0000346012B04D06FF00203FB6100E000BF32
:1056D000FB6918462037BD4680BD00BF4C00002046
:1056E00004ED00E080B588B000AF78607B68BB61F6
:1056F000EFF305837B617B69002B0FD1EFF3108300
:105700003B613B69002B09D1104B1B68022B09D16F
:10571000EFF31183FB60FB68002B03D06FF00503F0
:10572000FB610EE0BB69002B03D16FF00303FB614B
:1057300007E0B86901F0EAF80023FB61B86900F0FE
:1057400073FFFB6918462037BD4680BD4C00002022
:1057500080B485B000AFF860B9607A60FB68064A33
:105760001A60BB68054A1A607B6880221A6000BF15
:105770001437BD4680BC704750000020AC000020AC
:1057800080B485B000AFF860B9607A60FB68074A02
:105790001A60BB68064A1A607B684FF480721A6010
:1057A00000BF1437BD4680BC704700BFAC0200206C
:1057B0000803002080B586B000AF78607B68002BBE
:1057C0000AD14FF0500383F31188BFF36F8FBFF3FB
:1057D0004F8F3B6100BFFEE72023BB60BB68202BDF
:1057E0000AD04FF0500383F31188BFF36F8FBFF3DC
:1057F0004F8FFB6000BFFEE77B687B617B69002BFE
:105800000AD07B6900221A607B690433184600F0D5
:1058100022F87B6901221A777B6918461837BD4642
:1058200080BD80B582B000AF202002F0EFFF78602D
:105830007B68002B0AD07B6800221A607B680433E7
:10584000184600F008F87B6800221A777B68184633
:105850000837BD4680BD80B483B000AF78607B68F8
:1058600003F108027B685A607B684FF0FF329A6050
:105870007B6803F108027B68DA607B6803F1080249
:105880007B681A617B6800221A6000BF0C37BD4636
:1058900080BC704780B483B000AF78607B68002222
:1058A0001A6100BF0C37BD4680BC704780B485B01C
:1058B00000AF786039607B685B68FB603B68FA68C2
:1058C0005A60FB689A683B689A60FB689B683A6814
:1058D0005A60FB683A689A603B687A681A617B682C
:1058E0001B685A1C7B681A6000BF1437BD4680BC19
:1058F000704780B485B000AF786039603B681B6842
:10590000BB60BB68B3F1FF3F03D17B681B69FB60E1
:105910000CE07B680833FB6002E0FB685B68FB60BF
:10592000FB685B681B68BA689A42F6D2FB685A68E3
:105930003B685A603B685B683A689A603B68FA6803
:105940009A60FB683A685A603B687A681A617B68BB
:105950001B685A1C7B681A6000BF1437BD4680BCA8
:10596000704780B485B000AF78607B681B69FB60CE
:105970007B685B687A6892689A607B689B687A68E3
:1059800052685A60FB685B687A689A4203D17B6808
:105990009A68FB685A607B6800221A61FB681B6882
:1059A0005A1EFB681A60FB681B6818461437BD4610
:1059B00080BC704780B584B000AF786039607B6888
:1059C000FB60FB68002B0AD14FF0500383F3118872
:1059D000BFF36F8FBFF34F8FBB6000BFFEE702F0D6
:1059E00015FEFB681A68FB68DB6BF968096C01FB44
:1059F00003F31A44FB685A60FB6800229A63FB6851
:105A00001A68FB689A60FB681A68FB68DB6B013BED
:105A1000F968096C01FB03F31A44FB68DA60FB6860
:105A2000FF2283F84420FB68FF2283F845203B686F
:105A3000002B14D1FB681B69002B1AD0FB681033B4
:105A4000184601F017FC0346002B12D00C4B4FF008
:105A500080521A60BFF34F8FBFF36F8F09E0FB686E
:105A600010331846FFF7F7FEFB6824331846FFF79C
:105A7000F2FE02F0FBFD012318461037BD4680BD43
:105A800004ED00E080B58EB002AFF860B9607A60D6
:105A90003B60FB68002B0AD14FF0500383F3118861
:105AA000BFF36F8FBFF34F8FBB6200BFFEE73B6852
:105AB000002B0AD14FF0500383F31188BFF36F8F8F
:105AC000BFF34F8F7B6200BFFEE77B68002B02D0E5
:105AD000BB68002B01D0012300E00023002B0AD17A
